:100000000C9425160C944D160C944D160C944D160C
:100010000C944D160C944D160C944D160C944D16D4
:100020000C944D160C944D160C944D160C944D16C4
:100030000C944D160C944D160C944D160C944D16B4
:100040000C9497260C944D160C9433220C94652234
:100050000C944D160C944D160C944D160C944D1694
:100060000C944D160C944D16FFE0FFD1AFFF32FFFC
:10007000D0FFFEFFE0FFD1AEFFD0FFFEFFE0FFD1DB
:100080001000FFFEFFD0FFE0FFC1FFD1AED580A87A
:100090003FD300408D142000A1C8DA1281CFD9F1DE
:1000A000DB402EA4A6AFFFD0FFFE00101000FE0A1A
:1000B00006A7089500FFFE0EFE0BFE101020100094
:1000C000FEAAAA00018000000180004A51EA505AAD
:1000D00051C99E0001800000018000000180005590
:1000E000551010201000FEAAAA0001800000018017
:1000F000003993C252325F8A5271938000000180AE
:10010000000001800055551010201000FEAAAA0022
:10011000018000000180003BA5C1243119892471B0
:10012000258000000180000001800055551010203E
:100130001000FEAAAA00018000000180007BA5C17A
:10014000247919C1247925800000018000000180F4
:100150000055551010201000FEAAAA0001800000D2
:1001600001800079BFC2487A49C24879898000007D
:100170000180000001800055551010201000FEAADB
:10018000AA00018000000180007A4DC2527B53C258
:10019000D67A4F8000000180000001800055551084
:1001A00010201000FEAAAA0001800000018000318A
:1001B000A5CA287A31CA2849A5800000018000001C
:1001C00001800055551010201000FEAAAA000180E1
:1001D000000001800073D1CA1073D1CA1073DF8090
:1001E0000000018000000180005555101020100013
:1001F000FEAAAA00018000000180001E3991401E65
:100200003191081E718000000180000001800055BE
:10021000551010201000FEAAAA00018000000180E5
:100220000022F9A2203E21A220222180000001808C
:10023000000001800055551010201000FEAAAA00F1
:100240000180000001800020F9A08020F9A0803EFC
:1002500081800000018000000180005555101020B1
:100260001000FEAAAA000180000001800022F9A26D
:1002700020222194200821800000018000000180BC
:100280000055551010201000FEAAAA0001800000A1
:100290000180003EF9A0803EF9A08020818000000E
:1002A0000180000001800055551010201000FEAAAA
:1002B000AA00018000000180001EF1A08820F1A0AA
:1002C000901E8980000001800000018000555510BB
:1002D00010201000FEAAAA00018000000180001E6C
:1002E00071A0881C8982883C718000000180000018
:1002F00001800055551010201000FEAAAA000180B0
:1003000000000180001EF9A0201C2182203CF98001
:1003100000000180000001800055551010201000E1
:10032000FEAAAA0001800000018000391DA5102549
:100330001DA51039DD8000000180000001800055FE
:10034000551010201000FEAAAA00018000000180B4
:10035000007189CA184A09CA08719D80000001808D
:10036000000001800055551010201000FEAAAA00C0
:10037000018000000180007199CA044A09CA107105
:100380009D80000001800000018000555510102064
:100390001000FEAAAA00018000000180007199CA25
:1003A000044A19CA0471998000000180000001808C
:1003B0000055551010201000FEAAAA000180000070
:1003C0000180007185CA0C4A15CA1C718580000025
:1003D0000180000001800055551010201000FEAA79
:1003E000AA00018000000180004993EA546A59DBA9
:1003F000D44A538000000180000001800055551050
:1004000010201000FEAAAA00018000000180003424
:1004100053C29A31178912711380000001800000C5
:1004200001800055551010201000FEAAAA0001807E
:1004300000000180007BB9C1247939C12479398059
:1004400000000180000001800055551010201000B0
:10045000FEAAAA00018000000180003325C4B44731
:10046000ADC4A434A58000000180000001800055C7
:10047000551010201000FEAAAA0001800000018083
:10048000003E89A0D83EA9A0883E89800000018056
:10049000000001800055551010201000FEAAAA008F
:1004A000018000000180003A5DC252325D8A5271C3
:1004B0009D80000001800000018000555510102033
:1004C0001000FEAAAA000180000001800079CFC2BE
:1004D000107991C0507B8F80000001800000018066
:1004E0000055551010201000FEAAAA00018000003F
:1004F0000180001E7190801E61901010E18000004C
:100500000180000001800055551010201000FEAA47
:10051000AA00018000000180000E71908016619297
:10052000100EE18000000180000001800055551090
:1005300010201000FEAAAA00018000000180001C0B
:100540007192801C61941012E18000000180000013
:1005500001800055551010201000FEAAAA0001804D
:10056000000001800012719280126192100CE180F3
:1005700000000180000001800055550000000800C7
:100580000E010A0A0804008080808080808000803C
:100590008005040408020888888888060A0A080179
:1005A00000242424FC4848FC909090070A0A080183
:1005B00000107C9290701C12927C10070A0A0801AD
:1005C000006294946810102C52528C070A0A080199
:1005D000003844442830528A848C72010404080490
:1005E0000880808080030C0C0803FF20404080803E
:1005F00080808080404020030C0C0802FF80404037
:1006000020202020202040408007070708010110FB
:10061000925438549210070707080101101010FE79
:100620001010100204040803FEC0404080040101C1
:10063000080204F0020202080300C0C0060A0A0809
:10064000010004040810102020408080060A0A08D7
:10065000010030488484848484844830050A0A0870
:1006600002002060A0202020202020F8060A0A088E
:100670000100788484041820408080FC060A0A085F
:10068000010078848404380404848478060A0A0803
:100690000100081828488888FC080808060A0A0883
:1006A0000100FC808080F80404048478060A0A08AB
:1006B000010038408080F88484848478060A0A081F
:1006C0000100FC040408080810101010060A0A08AB
:1006D000010078848484788484848478060A0A08F3
:1006E0000100788484847C040404087002070708ED
:1006F0000301C0C0000000C0C00209090803FFC018
:10070000C0000000C0404080050909080200081030
:1007100020408040201008060505080102FC00006A
:1007200000FC050909080100804020100810204045
:1007300080060A0A0801007884840408101000105A
:1007400010060A0A080100384494ACA4A4A49C40F2
:100750003C060A0A0801003048488484FC848484EA
:1007600084060A0A080100F8848484F88484848456
:10077000F8060A0A080100788484808080808484D6
:1007800078060A0A080100F08884848484848488B6
:10079000F0060A0A080100FC808080F880808080D2
:1007A000FC060A0A080100FC808080F880808080B6
:1007B00080060A0A08010078848480809C84848CE6
:1007C00074060A0A08010084848484FC8484848476
:1007D00084050A0A080200F820202020202020207A
:1007E000F8070A0A0801003E08080808080888886F
:1007F00070060A0A080100848890A0C0C0A09088F2
:1008000084060A0A080100808080808080808080C1
:10081000FC060A0A0801008484CCCCB4B484848425
:1008200084060A0A08010084C4C4A4A494948C8C8D
:1008300084060A0A08010078848484848484848479
:1008400078060A0A080100F8848484F88080808091
:1008500080070B0B0801FF78848484848484B4CCE3
:100860007806060A0A080100F8848484F8908888CB
:100870008484060A0A08010078848480601804844D
:100880008478070A0A080100FE10101010101010DA
:100890001010060A0A0801008484848484848484F5
:1008A0008478070A0A080100828282444444282886
:1008B0001010060A0A08010084848484B4B4CCCCE5
:1008C0008484060A0A080100848448483030484875
:1008D0008484070A0A080100828244442810101008
:1008E0001010060A0A080100FC04040810204080C9
:1008F00080FC030C0C0804FFE080808080808080F6
:10090000808080E0060A0A080100808040202010D4
:1009100010080404030C0C0801FFE0202020202014
:100920002020202020E00603030801093048840726
:1009300001010801FFFE03030308020A80402006AC
:1009400008080801007884047C84848C74060B0BEE
:10095000080100808080B8C484848484C4B80608F8
:10096000080801007884808080808478060B0B085A
:100970000100040404748C848484848C7406080844
:10098000080100788484FC80808478050B0B0801C2
:100990000018202020F8202020202020060B0B0803
:1009A00001FE0474888888704078848478060B0B74
:1009B000080100808080B8C4848484848484050B0A
:1009C0000B08020020200060202020202020F805B5
:1009D0000D0D0801FE080800180808080808080896
:1009E0009060060B0B0801008080808890A0C0A05A
:1009F000908884050B0B0802006020202020202016
:100A0000202020F8070808080100EC9292929292A8
:100A10009292060808080100B8C4848484848484FF
:100A20000608080801007884848484848478060A8F
:100A30000A0801FEB8C484848484C4B88080060A8D
:100A40000A0801FE748C848484848C74040406086F
:100A500008080100B8C484808080808006080808E7
:100A600001007884806018048478050A0A0801006F
:100A7000202020F820202020201806080808010047
:100A80008484848484848C74060808080100848427
:100A90008448484830300708080801008292929242
:100AA0009292926C0608080801008484483030480D
:100AB0008484060A0A0801FE84848484844C3404F5
:100AC0000478060808080100FC040810204080FC97
:100AD000030C0C0803FF6080804040808040408011
:100AE0008060010E0E0804FE8080808080808080FF
:100AF000808080808080030C0C0802FFC020204092
:100B000040202040402020C00703030801086292D3
:100B10008C1010201000FEAAAA00018000000180A5
:100B20000073D1CA104BD1CA1073DF80000001805E
:100B3000000001800055551010201000FEAAAA00E8
:100B400001800000018000719DCA5273D3C25242DD
:100B50005D800000018000000180005555101020CC
:100B60001000FEAAAA0001800000018000499DCA71
:100B7000527A5DCA504991800000018000000180D6
:100B80000055551010201000FEAAAA000180000098
:100B90000180007393CA52739FCA127213800000BF
:100BA0000180000001800055551010201000FEAAA1
:100BB000AA00018000000180004B93EA525B9FCAAB
:100BC000524B9380000001800000018000555510B9
:100BD00010201000FEAAAA0001800000018000740D
:100BE000B9A6A425A5A4A474B980000001800000C2
:100BF00001800055551010201000FEAAAA000180A7
:100C000000000180004BD1EA105BD1CA104BDF809D
:100C100000000180000001800055551010201000D8
:100C2000FEAAAA000180000001800039CDC2123165
:100C30009F8852739380000001800000018000555E
:100C4000551010201000FEAAAA00018000000180AB
:100C50000079CDC212799FC0527B93800000018041
:100C6000000001800055551010201000FEAAAA00B7
:100C7000018000000180004B9DC9207919C90449F9
:100C800039800000018000000180005555101020BF
:100C90001000FEAAAA000180000001800025DDA44A
:100CA000843C85A484249980000001800000018098
:100CB0000055551010201000FEAAAA000180000067
:100CC00001800045CDC4904489A88410998000001B
:100CD0000180000001800055551010201000FEAA70
:100CE000AA0001800000018000721DCA127213C2A6
:100CF0001243DD8000000180000001800055551086
:100D000010201000FEAAAA000180000001800072DD
:100D100013CA127213C21243CD800000018000007A
:100D200001800055551010201000FEAAAA00018075
:100D300000000180000E2189200E218A20092180D7
:100D400000000180000001800055551010201000A7
:100D5000FEAAAA000180000001800039DDC2023134
:100D60008D8850739F800000018000000180005535
:100D7000551010201000FEAAAA000180000001807A
:100D80000039DDC202318D8842739D8000000180F0
:100D9000000001800055551010201000FEAAAA0086
:100DA0000180000001800071CFCA104A0DCA027193
:100DB000DD800000018000000180005555101020EA
:100DC0001000FEAAAA00018000000180007245CA3E
:100DD0004C7245C244418F800000018000000180B8
:100DE0000055551010201000FEAAAA000180000036
:100DF000018000725DCA42724DC250419F80000066
:100E00000180000001800055551010201000FEAA3E
:100E1000AA00018000000180003B9DC1203119899A
:100E200004713980000001800000018000555510D8
:100E300010201000FEAAAA000180000001800039E5
:100E4000D3C212421FC21239D380000001800000B9
:100E500001800055551010201000FEAAAA00018044
:100E600000000180002289B6882AA9A2D8228980A0
:100E70000000018000000180005555101020100076
:100E8000FEAAAA00018000000180003B8DC25233FF
:100E90009F8A1272138000000180000001800055BB
:100EA000551010201000FEAAAA0001800000018049
:100EB000007B8DC2527B9FC2127A1380000001809A
:100EC000000001800055551010201000FEAAAA0055
:100ED00001800000018000398FC250324D8A42717A
:100EE0009D800000018000000180005555101020F9
:100EF0001000FEAAAA0001800000018000339BC4FC
:100F00002225A394A2639B80000001800000018041
:100F10000055551010201000FEAAAA000180000004
:100F200001800039DDC20832098A0871DD800000C5
:100F30000180000001800055551010201000FEAA0D
:100F4000AA000180000001800039DDC2084189C08B
:100F5000483B9D8000000180000001800055551035
:100F600010201000FEAAAA00018000000180000EDF
:100F7000F990200C2182201C2180000001800000BB
:100F800001800055551010201000FEAAAA00018013
:100F9000000001800031CFCA104991C850338F80C2
:100FA0000000018000000180005555101020100045
:100FB000FEAAAA00018000000180001C8992D81CB2
:100FC000A9908810898000000180000001800055F0
:100FD000551010201000FEAAAA0001800000018018
:100FE00000338FCA507B91CA104A0F8000000180E5
:100FF0000000018000555500000008000E010A0A9B
:1010000008040080800080808080808080070A0A39
:1010100008010010107C929090927C1010070A0A30
:101020000801001C202020F82020207CC20608088F
:101030000801018448784848784884070A0A08016A
:101040000082442810FE10FE101010010A0A080445
:101050000080808080000080808080060A0A08016D
:1010600000788480788484780484780402020802FA
:101070000C9090080A0A0800003C4299A5A1A1A57D
:1010800099423C050707080205700878887800F83F
:1010900006090908010024244848904848242406E9
:1010A0000404080100FC0404041010201000FEAA2F
:1010B000AA000180003A63C25433C98A4872498049
:1010C000000001800003C180000001800055550828
:1010D0000A0A0800003C42B9A5A5B9A9A5423C06E8
:1010E000010108010BFC03040408020A40A0A0400F
:1010F000070909080101101010FE10101000FE056C
:101100000707080205708808708080F8050707083F
:1011100002057088087008887003030308030A201A
:101120004080080A0A0800FE424242424242665992
:101130004080060C0C0801FF7CF4F4F4F4741414E1
:101140001414141C020202080304C0C003020208A3
:1011500002FE20C00307070802052060A02020200F
:1011600020050707080205708888887000F80609BE
:1011700009080100909048482448489090060A0ABF
:1011800008010044C4485050242C549C84060A0A88
:1011900008010044C4485050283444889C060A0A78
:1011A000080100C4244830D0242C549C84060A0A28
:1011B00008010010100010106084848478060E0E60
:1011C000080100601800003048488484FC8484844E
:1011D00084060E0E08010018600000304848848420
:1011E000FC84848484060E0E080100304800003020
:1011F00048488484FC84848484060E0E08010064BC
:101200009800003048488484FC84848484060E0E50
:10121000080100484800003048488484FC848484E5
:1012200084060E0E0801003048300030484884849F
:10123000FC84848484070A0A0801003E509090FED2
:10124000909090909E060C0C0801FE78848480801B
:1012500080808484781060060E0E080100601800FB
:1012600000FC808080F880808080FC060E0E0801E3
:101270000018600000FC808080F880808080FC0680
:101280000E0E08010030480000FC808080F880804D
:101290008080FC060E0E08010048480000FC80809B
:1012A00080F880808080FC050E0E08020060180027
:1012B00000F82020202020202020F8050E0E080213
:1012C0000030C00000F82020202020202020F80539
:1012D0000E0E08020060900000F820202020202040
:1012E0002020F8050E0E08020090900000F8202043
:1012F000202020202020F8070A0A08000078444215
:1013000042F24242424478060E0E08010064980000
:101310000084C4C4A4A494948C8C84060E0E08018A
:10132000006018000078848484848484848478062F
:101330000E0E080100186000007884848484848480
:10134000848478060E0E08010030480000788484FA
:1013500084848484848478060E0E080100649800D6
:101360000078848484848484848478060E0E080142
:1013700000484800007884848484848484847806C7
:1013800005050801028448304884060C0C0801FF5A
:101390000474888C9494A4A4C444B880060E0E08E7
:1013A00001006018000084848484848484848478A8
:1013B000060E0E0801001860000084848484848472
:1013C00084848478060E0E0801003048000084846E
:1013D0008484848484848478060E0E08010048483E
:1013E000000084848484848484848478070E0E08B6
:1013F0000100186000008282444428101010101070
:10140000060B0B0801008080F088848488F08080BF
:1014100080060A0A08010070888890B0888484A435
:1014200098060C0C080100601800007884047C8485
:10143000848C74060C0C0801001860000078840489
:101440007C84848C74060C0C080100304800007801
:1014500084047C84848C74060C0C0801006498005D
:10146000007884047C84848C74060C0C0801004889
:101470004800007884047C84848C74060D0D080177
:101480000030483000007884047C84848C74070821
:10149000080801007C92127E9090927C060A0A084D
:1014A00001FE78848080808084781060060C0C08AF
:1014B000010060180000788484FC80808478060C29
:1014C0000C08010018600000788484FC8080847817
:1014D000060C0C08010030480000788484FC8080F1
:1014E0008478060C0C08010048480000788484FCCD
:1014F00080808478050C0C080200C0300000602059
:101500002020202020F8050C0C08020030C000002C
:1015100060202020202020F8050C0C08020060909C
:10152000000060202020202020F8050C0C0802007C
:101530009090000060202020202020F8060C0C084D
:10154000010064182844047C848484848478060C14
:101550000C08010064980000B8C4848484848484E6
:10156000060C0C08010060180000788484848484D0
:101570008478060C0C0801001860000078848484CC
:1015800084848478060C0C080100304800007884BC
:10159000848484848478060C0C080100649800001C
:1015A0007884848484848478060C0C08010048487C
:1015B0000000788484848484847806070708010105
:1015C000300000FC000030060A0A0801FF04788C95
:1015D0009494A4A4C47880060C0C08010060180040
:1015E000008484848484848C74060C0C08010018A4
:1015F0006000008484848484848C74060C0C08014C
:1016000000304800008484848484848C74060C0C2C
:10161000080100484800008484848484848C740613
:101620000E0E0801FE1860000084848484844C340B
:10163000040478050C0C0802FE8080F088888890ED
:10164000A0C0808080060E0E0801FE48480000847D
:10165000848484844C3404047801070D00FE09015D
:101660005F02CF20FFFE0BFE0AFE0D0070321979DB
:10167000808080808080800080283373A0A0A013A9
:1016800057775050F850F850501357772078A07083
:1016900028F02002697944A4481010204894880258
:1016A000677760909060948874381373808080228C
:1016B0003979204040808080404020223979804024
:1016C000402020204040800465754830FC3048149C
:1016D00055752020F82020114373706080165171D9
:1016E000F821337340E04012597908081010204067
:1016F0004080800269793048848484848448301230
:1017000059792060A02020202020F802697978846F
:10171000840408304080FC026979FC040810380415
:10172000048478026979081828488888FC08080227
:101730006979FC8080B8C4040484780269793840EF
:101740008080B8C4848478026979FC040810102071
:101750002040400269797884848478848484780283
:1017600069797884848C740404087021387840E0A6
:1017700040000040E0401148782070200000706078
:1017800080125979081020408040201008046474A9
:10179000FC0000FC12597980402010081020408085
:1017A000026979788484040810100010026979783D
:1017B00084849CA4AC9480780269793048848484C1
:1017C000FC848484026979F844444478444444F8AD
:1017D000026979788480808080808478026979F8D1
:1017E00044444444444444F8026979FC808080F0D5
:1017F000808080FC026979FC808080F0808080801D
:1018000002697978848080809C848C7402697984F0
:10181000848484FC84848484125979F820202020D4
:10182000202020F80269791C080808080808887038
:10183000026979848890A0C0A09088840269798028
:1018400080808080808080FC02697984CCCCB4B4B4
:10185000848484840269798484C4A4948C84848478
:10186000026979788484848484848478026979F82C
:10187000848484F880808080016A7A788484848477
:1018800084A4947804026979F8848484F8A0908808
:101890008402697978848080780404847812597984
:1018A000F82020202020202020026979848484844C
:1018B00084848484780269798484844848483030F8
:1018C0003002697984848484B4B4CCCC840269798C
:1018D0008484484830484884841259798888505014
:1018E0002020202020026979FC040810302040804C
:1018F000FC114B7BF0808080808080808080F012A3
:101900005979808040402010100808114B7BF0105E
:101910001010101010101010F01853732050880180
:101920006171FC2A2272804002667678047C848C85
:1019300074026979808080B8C48484C4B8026676F1
:10194000788480808478026979040404748C8484A7
:101950008C740266767884FC8084780269793844D5
:101960004040F0404040400068787488887080783B
:101970008478026979808080B8C484848484125811
:101980007820006020202020F8105A7A08001808DB
:101990000808088888700269798080808890E090C3
:1019A00088841259796020202020202020F81256A7
:1019B00076D0A8A8A8A888026676B8C4848484844F
:1019C000026676788484848478006878B8C484C495
:1019D000B8808080006878748C848C74040404025D
:1019E0006676B84440404040026676788460188449
:1019F000780268784040F04040404438026676847F
:101A00008484848C741256768888885050201256AC
:101A1000768888A8A8A85002667684483030488422
:101A20000068788484848C74048478026676FC0868
:101A3000102040FC115B7B3840404020C0204040DB
:101A40004038321979808080808080808080115B6E
:101A50007BE0101010201820101010E0185373486D
:101A6000A890FFFFFFFFFFFFFFFFFFFFFFFFFFFF4C
:101A7000FFFFFFFFFFFFFFFFFFFFFFFFFFFFFFFF76
:101A8000FFFFFF0D00703219798000808080808018
:101A900080801358782070A8A0A0A87020026979CF
:101AA00038444040E0404044B80366768478484873
:101AB000788402597988885050F820F8202032190B
:101AC00079808080800080808080124A7A60908057
:101AD00060909060109060194272909002697978DD
:101AE00084B4A4A4A4B48478145777700878887850
:101AF00000F8036777142850A0502814145373F883
:101B00000808164171F00269797884B4ACACB4ACC1
:101B100084781A5171F81744746090906013577765
:101B20002020F8202000F816367640A0204080E0E3
:101B3000163676E0204020A0402A227240800167BD
:101B40007784848484CCB4800269797CE8E8E8688E
:101B500028282828262171C0202272408016367637
:101B600040C0404040E01546766090906000F00331
:101B70006777A05028142850A0026A7A40C04040DD
:101B800044EC14141C04026A7A40C0404048F40437
:101B900008101C026A7AE0204020A44C14141C0493
:101BA000026979200020204080848478026A7A20AB
:101BB000100030488484FC8484026A7A102000304B
:101BC000488484FC8484026A7A30480030488484E3
:101BD000FC8484026A7A64980030488484FC84849B
:101BE000026A7A48480030488484FC8484026A7A15
:101BF00030483030488484FC84840269795CA0A039
:101C0000A0B8E0A0A0BC006B7B788480808080803E
:101C100084781020026A7A201000FC8080F0808096
:101C2000FC026A7A102000FC8080F08080FC026A4E
:101C30007A304800FC8080F08080FC026A7A484854
:101C400000FC8080F08080FC125A7A402000F8204E
:101C500020202020F8125A7A204000F8202020204E
:101C600020F8125A7A205000F82020202020F81264
:101C70005A7A888800F82020202020F8026979F814
:101C8000444444E4444444F8026A7A64980084C4B6
:101C9000A4A4948C84026A7A2010007884848484BA
:101CA0008478026A7A10200078848484848478029C
:101CB0006A7A30480078848484848478026A7A64FA
:101CC000980078848484848478026A7A484800780A
:101CD0008484848484780366768448303048840120
:101CE0006B7B04788C9494A4A4A4C47880026A7A50
:101CF00020100084848484848478026A7A1020000E
:101D000084848484848478026A7A30480084848459
:101D100084848478026A7A48480084848484848431
:101D200078125A7A102000888850202020200269DA
:101D30007980F8848484F88080801259796090904A
:101D4000A0A0908888B002697920100078047C8473
:101D50008C7402697910200078047C848C74026988
:101D60007930480078047C848C7402697964980026
:101D700078047C848C7402697948480078047C84F7
:101D80008C74026A7A3048300078047C848C740247
:101D9000667668147C909468006878788480808483
:101DA0007810200269792010007884FC8084780201
:101DB00069791020007884FC808478026979304841
:101DC000007884FC8084780269794848007884FC33
:101DD0008084781259794020006020202020F81259
:101DE00059792040006020202020F8125979609015
:101DF000006020202020F812597990900060202067
:101E00002020F8026A7A48305008788484848478E4
:101E1000026979649800B8C4848484840269792052
:101E20001000788484848478026979102000788492
:101E30008484847802697930480078848484847842
:101E40000269796498007884848484780269794886
:101E50004800788484848478135777202000F80021
:101E6000202001687804788C94A4C4788002697971
:101E7000201000848484848C74026979102000848A
:101E80008484848C74026979304800848484848CCE
:101E900074026979484800848484848C74006B7B64
:101EA0001020008484848C74048478006A7A808092
:101EB000B8C48484C4B88080006B7B4848008484A4
:101EC000848C74048478000A1400FC0D024A04997E
:101ED00020FFFC10FC0DFC0000000A0010020D0D9C
:101EE0000A0400C0C0C0C0C0C0C0C0C0C000C0C0E4
:101EF0000604040A0209CCCCCC48090B160A0101DD
:101F00001B001B001B007F80360036003600FF00E0
:101F10006C006C006C00080D0D0A0100187EDBD807
:101F2000D8D87E1B1B1BDB7E18090C180A01007316
:101F300000DB00DE0076000C000C001800180037F3
:101F4000003D806D806700090D1A0A010038006CA1
:101F5000006C006C00780030007000D800CD80C7A5
:101F600000C600EF0079800205050A0408C0C0C061
:101F7000C080050D0D0A030018306060C0C0C0C0ED
:101F8000C060603018050D0D0A0200C060303018C6
:101F900018181818303060C00807070A0103666671
:101FA0003CFF3C66660807070A0103181818FF186B
:101FB00018180403030A03FF7070E00801010A0106
:101FC00006FF0303030A0400E0E0E0070C0C0A022A
:101FD0000006060C0C181830306060C0C0080D0DEB
:101FE0000A0100183C6666C3C3C3C3C366663C18D7
:101FF000080D0D0A0100183878D818181818181884
:102000001818FF080D0D0A01003C66C3C303030640
:102010001C3060C0C0FF080D0D0A01003C66C3C340
:1020200003061C0603C3C3663C080D0D0A0100022B
:10203000060E1E3666C6C6FF06060606080D0D0A03
:102040000100FFC0C0C0C0DCE6030303C3663C0858
:102050000D0D0A01003C66C2C0C0DCE6C3C3C3C3A9
:10206000663C080D0D0A0100FF030306060C0C1860
:102070001830306060080D0D0A01003C66C3C3C310
:10208000663C66C3C3C3663C080D0D0A01003C668E
:10209000C3C3C3C3673B030343663C0308080A0486
:1020A00000E0E000000000E0E00409090A03FF701E
:1020B00070000000007070E0070D0D0A01000206BC
:1020C0000C183060C06030180C06020806060A01C1
:1020D00003FF00000000FF070D0D0A020080C06032
:1020E00030180C060C183060C080080D0D0A010075
:1020F0003C66C3C3C3060C181818001818080D0D49
:102100000A01003C66C3CFDFDBDBDBDECCC0633E15
:10211000080D0D0A0100183C6666C3C3C3FFC3C3A4
:10212000C3C3C3080D0D0A0100F8CCC6C6C6CCFC5B
:10213000C6C3C3C3C6FC080D0D0A01003C66C3C07C
:10214000C0C0C0C0C0C0C3663C080D0D0A0100FC81
:10215000C6C3C3C3C3C3C3C3C3C3C6FC080D0D0AF0
:102160000100FFC0C0C0C0C0FCC0C0C0C0C0FF08EC
:102170000D0D0A0100FFC0C0C0C0C0FCC0C0C0C07F
:10218000C0C0080D0D0A01003C66C3C0C0C0CFC36B
:10219000C3C3C3673D080D0D0A0100C3C3C3C3C356
:1021A000C3FFC3C3C3C3C3C3080D0D0A0100FF1897
:1021B00018181818181818181818FF090D1A0A01F5
:1021C000001F800600060006000600060006000646
:1021D000000600C600C6006C003800080D0D0A019C
:1021E00000C3C3C6C6CCCCF8CCCCC6C6C3C3080D8E
:1021F0000D0A0100C0C0C0C0C0C0C0C0C0C0C0C0C7
:10220000FF080D0D0A0100C3C3E7E7FFDBDBDBDBE3
:10221000C3C3C3C3080D0D0A0100C3E3E3F3F3DB3B
:10222000DBCFCFC7C7C3C3080D0D0A01003C66C38F
:10223000C3C3C3C3C3C3C3C3663C080D0D0A0100B7
:10224000FCC6C3C3C3C3C6FCC0C0C0C0C0080E0E1A
:102250000A01FF3C66C3C3C3C3C3C3C3DBCF663E2F
:1022600003080D0D0A0100FCC6C3C3C3C3C6FCCCE2
:10227000C6C6C3C3080D0D0A01003C66C3C0C060DA
:102280003C060303C3663C080D0D0A0100FF181845
:1022900018181818181818181818080D0D0A010021
:1022A000C3C3C3C3C3C3C3C3C3C3C3663C080D0D09
:1022B0000A0100C3C3C3C36666663C3C3C181818D9
:1022C000080D0D0A0100C3C3C3C3C3DBDBDBDBE7BF
:1022D000E7C3C3080D0D0A0100C3C366663C3C1882
:1022E0003C3C6666C3C3080D0D0A0100C3C36666A5
:1022F0003C3C18181818181818080D0D0A0100FF92
:102300000303060C0C18303060C0C0FF060D0D0A28
:102310000200FCC0C0C0C0C0C0C0C0C0C0C0FC077C
:102320000C0C0A0200C0C06060303018180C0C069B
:1023300006060D0D0A0200FC0C0C0C0C0C0C0C0C0F
:102340000C0C0CFC0804040A0109183C66C30901C2
:10235000020A01FFFF800403030A030AC060300879
:1023600008080A01003E63037FC3C3C37D080D0D47
:102370000A0100C0C0C0C0C0DCE6C3C3C3C3E6DC02
:102380000808080A01003E63C0C0C0C0633E080DD3
:102390000D0A010003030303033B67C3C3C3C36701
:1023A0003B0808080A01003C66C3FFC0C0633E0842
:1023B0000D0D0A01001E33333030FC303030303028
:1023C0003030080C0C0A01FC7DC7C6C6C67CC07E36
:1023D000C3C3C37E080D0D0A0100C0C0C0C0C0DC6D
:1023E000E6C3C3C3C3C3C3080B0B0A01001818001C
:1023F00078181818181818FF070F0F0A02FC06069D
:10240000001E06060606060606C6C6C67C080D0D94
:102410000A0100C0C0C0C0C0C6CCD8F0F8CCC6C34A
:10242000080D0D0A0100781818181818181818182F
:102430001818FF0808080A0100B6FFDBDBDBDBDB4E
:10244000DB0808080A0100DCE6C3C3C3C3C3C30832
:1024500008080A01003C66C3C3C3C3663C080C0CF1
:102460000A01FCDCE6C3C3C3C3E6DCC0C0C0C008CD
:102470000C0C0A01FC3B67C3C3C3C3673B030303E4
:10248000030808080A0100DE73606060606060088D
:1024900008080A01007EC3C07E0303C37E080B0B3D
:1024A0000A0100303030FC3030303030331E080844
:1024B000080A0100C3C3C3C3C3C3673B0808080AB3
:1024C0000100C3C366663C3C18180808080A0100EE
:1024D000C3C3C3DBDBDBFF660808080A0100C36671
:1024E0003C18183C66C3080C0C0A01FCC3C3C3C3E8
:1024F000C3C3673B03C3663C0708080A0200FE0625
:102500000C183060C0FE080D0D0A01000F181818D5
:102510001818F018181818180F020D0D0A0400C02A
:10252000C0C0C0C0C0C0C0C0C0C0C0C0080D0D0A7F
:102530000100F018181818180F1818181818F008B3
:1025400003030A010A73DBCEFFFFFFFFFFFFFFFF5C
:10255000FFFFFFFFFFFFFFFFFFFFFFFFFFFFFFFF8B
:10256000FFFFFFFFFFFFFFFFFF0000000A00100258
:102570000D0D0A0400C0C000C0C0C0C0C0C0C0C0B3
:10258000C0C0070C0C0A010018183C66C2C0C0C2CB
:10259000663C1818090C180A01001E0033003300AD
:1025A00030003000FC00300030003000F800AD801A
:1025B000E7000909120A00018080DD807F006300C6
:1025C000630063007F00DD808080080B0B0A010040
:1025D00081C3663C7E187E18181818020D0D0A0477
:1025E00000C0C0C0C0C0000000C0C0C0C0C0080D56
:1025F0000D0A01003C66C66078CC66331E06636631
:102600003C0602020A020BCCCC080B0B0A01003C70
:1026100066C3BDA5A1A5BDC3663C0809090A01049E
:102620003E43037FC3C37D00FF090B160A0000046D
:10263000800D801B0036006C00D8006C0036001B3B
:10264000000D8004800804040A0104FFFF03030650
:1026500001010A0206FC080B0B0A01003C66C3BD1F
:10266000A5BDA9ADC3663C0801010A010DFF060620
:10267000060A02073078CCCC78300807070A010236
:102680001818FF181800FF0507070A020670D81867
:102690003060C0F80507070A020670D8183018D84D
:1026A000700403030A030A3060C0070A0A0A01FD26
:1026B000C6C6C6C6C6EEFAC0C0C0080D0D0A0100E7
:1026C0007FFFFBFBFB7B1B1B1B1B1B1B1B0303035A
:1026D0000A0405E0E0E00504040A02FC3018D870A2
:1026E0000407070A020660E060606060F0070909FD
:1026F0000A0104386CC6C6C66C3800FE090B160AFF
:1027000001009000D8006C0036001B000D801B00FB
:1027100036006C00D8009000080C0C0A010140C083
:102720004142E40812264A9E0202080C0C0A0101EA
:1027300040C04142E40816294182040F080C0C0AEB
:102740000101E0106112E40812264A9F0202080DFE
:102750000D0A01001818001818183060C3C3C366AA
:102760003C080F0F0A010060301800183C66C3C314
:10277000C3FFC3C3C3C3080F0F0A0100060C180030
:10278000183C66C3C3C3FFC3C3C3C3080F0F0A010A
:1027900000183C6600183C66C3C3C3FFC3C3C3C371
:1027A000080F0F0A0100327E4C00183C66C3C3C3F9
:1027B000FFC3C3C3C3080F0F0A0100666600183CBD
:1027C0006666C3C3C3FFC3C3C3C30810100A0100B6
:1027D0003C66663C00183C66C3C3C3FFC3C3C3C3A7
:1027E000080D0D0A01001F3C6C6CCCCCFFCCCCCC8E
:1027F000CCCCCF0811110A01FC3C66C3C0C0C0C0DC
:10280000C0C0C0C3663C180C6C38080F0F0A01002A
:1028100060301800FFC0C0C0C0FCC0C0C0C0FF080E
:102820000F0F0A01000C183000FFC0C0C0C0FCC070
:10283000C0C0C0FF080F0F0A0100183C6600FFC0AF
:10284000C0C0C0FCC0C0C0C0FF080F0F0A010066B6
:10285000660000FFC0C0C0C0FCC0C0C0C0FF060F03
:102860000F0A020060301800FC3030303030303059
:102870003030FC060F0F0A020018306000FC3030C8
:1028800030303030303030FC060F0F0A0200307824
:10289000CC00FC303030303030303030FC060F0FA0
:1028A0000A0200CCCC00FC303030303030303030D8
:1028B00030FC090D1A0A00007E006300618061800F
:1028C00061806180F98061806180618061806300E6
:1028D0007E00080F0F0A0100327E4C00C3E3F3F3C1
:1028E000DBDBCFCFC7C3C3080F0F0A010030180CC2
:1028F000003C66C3C3C3C3C3C3C3663C080F0F0A0F
:1029000001000C1830003C66C3C3C3C3C3C3C36615
:102910003C080F0F0A0100183C66003C66C3C3C3A5
:10292000C3C3C3C3663C080F0F0A0100327E4C00CC
:102930003C66C3C3C3C3C3C3C3663C080F0F0A01CD
:10294000006666003C66C3C3C3C3C3C3C3C3663C5F
:102950000708080A010082C66C38386CC682080F66
:102960000F0A01FF013E66C7C7CBCBCBD3D3D3E35E
:10297000667C80080F0F0A010030180C00C3C3C327
:10298000C3C3C3C3C3C3663C080F0F0A01000C18BE
:102990003000C3C3C3C3C3C3C3C3C3663C080F0F64
:1029A0000A0100183C6600C3C3C3C3C3C3C3C3C387
:1029B000663C080F0F0A0100666600C3C3C3C3C3A9
:1029C000C3C3C3C3C3663C080F0F0A01000C183011
:1029D00000C3C366663C3C1818181818070D0D0A8A
:1029E0000200C0C0C0FCC6C6C6C6C6FCC0C0C00887
:1029F0000D0D0A01001C36636366EC6C666363634D
:102A0000666C080C0C0A010030180C007EC3037FB2
:102A1000C3C3C37D080C0C0A01000C1830007EC330
:102A2000037FC3C3C37D080C0C0A0100183C660079
:102A30007EC3037FC3C3C37D080C0C0A0100327E32
:102A40004C007EC3037FC3C3C37D080B0B0A010088
:102A50006666007EC3037FC3C3C37D080D0D0A01F4
:102A6000003C66663C007EC3037FC3C3C37D080889
:102A7000080A0100769B1B1E78D8D96E080C0C0A38
:102A800001FC3E63C0C0C0C0633E180C6C38080C2B
:102A90000C0A0100603018003C66C3FFC0C0633EF2
:102AA000080C0C0A0100060C18003C66C3FFC0C0ED
:102AB000633E080C0C0A0100183C66003C66C3FF2C
:102AC000C0C0633E080B0B0A01006666003C66C38B
:102AD000FFC0C0633E080C0C0A010060301800788B
:102AE000181818181818FF080C0C0A01000C1830D8
:102AF0000078181818181818FF080C0C0A0100188C
:102B00003C660078181818181818FF080B0B0A01F3
:102B10000066660078181818181818FF080D0D0AB6
:102B2000010088D87070D88C3E67C3C3C3663C0868
:102B30000C0C0A0100327E4C00DCE6C3C3C3C3C3E5
:102B4000C3080C0C0A0100603018003C66C3C3C304
:102B5000C3663C080C0C0A0100060C18003C66C356
:102B6000C3C3C3663C080C0C0A0100183C66003C59
:102B700066C3C3C3C3663C080C0C0A0100327E4C1A
:102B8000003C66C3C3C3C3663C080B0B0A01006666
:102B900066003C66C3C3C3C3663C080A0A0A010157
:102BA00018180000FFFF00001818080A0A0A01FFA1
:102BB000013E66CBCBD3D3667C80080C0C0A0100A7
:102BC00030180C00C3C3C3C3C3C3673B080C0C0A53
:102BD0000100060C1800C3C3C3C3C3C3673B080C82
:102BE0000C0A0100183C6600C3C3C3C3C3C3673BE0
:102BF000080B0B0A0100666600C3C3C3C3C3C367E7
:102C00003B0810100A01FC0C183000C3C3C3C3C337
:102C1000C3673B03C3663C0711110A02FCC0C0C076
:102C2000C0C0C0F8CCC6C6C6CCF8C0C0C0C0080F73
:102C30000F0A01FC666600C3C3C3C3C3C3673B037B
:102C4000C3663C0039189522731811241FBECFEFBC
:102C5000D8E0DEBFCDBF11E0A0E0B1E0E6E8F7E5E7
:102C600002C005900D92A236B107D9F722E0A2E684
:102C7000B1E001C01D92A13FB207E1F716E1C4E245
:102C8000D6E104C02197FE010E94A927C232D107D4
:102C9000C9F70E9488260C94B62B0C94000090E093
:102CA00080E008950895CF93DF93EC01262F4CAD7B
:102CB0006BAD04960E94EF1B9BAD890F8BAF81E03B
:102CC00090E0DF91CF910895CF93DF93EC012496AC
:102CD000FC0125AD211105C021E025AFCE010E94E8
:102CE000BA1DCE01DF91CF910C94DF1D0F931F937E
:102CF000CF93DF9386E891E00E9464166AEA70E061
:102D00008AE891E00E94C21C40918B018091A2014F
:102D1000082E000C990B480F592F511D57FF02C068
:102D20004F5F5F4F8A011595079560918A01C62F05
:102D3000D0E064E171E08AE891E00E94BE1CBE012F
:102D4000681B710977FF02C06F5F7F4F75956795AC
:102D500024E131E0402F8AE891E00E94071C8AE8D4
:102D600091E00E94E41D8111C9CF60ED77E080E021
:102D700090E0DF91CF911F910F910C94122726E0E4
:102D800040E855E260E070E087E492E00E94D121E3
:102D90000C9476164F925F926F927F928F929F92D1
:102DA000AF92BF92EF92FF920F931F93CF93DF9357
:102DB000CDB7DEB72C970FB6F894DEBF0FBECDBFF0
:102DC00086E891E00E94641667E271E0CE01079602
:102DD0000E94AA2366EC7EE18AE891E00E94C21C70
:102DE000F090A20160E871E0CE0101960E941D24DE
:102DF0006FE171E0CE0101960E949324BC01CE01E7
:102E000007960E940624CE0101960E943823AF80C7
:102E1000B88480918A01082F10E0B5018AE891E01A
:102E20000E94BE1C9801281B3109C90137FD01967B
:102E30009595879595014F2D682F8AE891E00E941E
:102E4000071C69E576E18AE891E00E94C21C609166
:102E5000A201062E000C770B880B990B0E945428B8
:102E600020E030E040EC5FE30E94E0284B015C0191
:102E70006F2DFF0C770B880B990B0E9454289B0138
:102E8000AC01C501B4010E94B0270E941C284B016F
:102E90006AE771E0CE0101960E941D2462E271E0B2
:102EA000CE0101960E94932464E771E00E94802481
:102EB0006FE171E00E949324BC01CE0107960E944D
:102EC0000624CE0101960E943823EF80F884809179
:102ED0008A01082F10E0B7018AE891E00E94BE1C29
:102EE0009801281B3109C90137FD019695958795F1
:102EF0009701482D682F8AE891E00E94071C609195
:102F0000A201062E000C770B880B990B0E94542807
:102F100020E030E040EC5FE30E94E0282B013C0120
:102F2000B401990C880B990B0E9454289B01AC01A9
:102F3000C301B2010E94B0270E941C284B016EE61B
:102F400071E0CE0101960E941D2468E271E0CE017D
:102F500001960E94932468E671E00E94802465E255
:102F60000E94AD24BC01CE0107960E940624CE012A
:102F700001960E943823EF80F88480918A01082FFF
:102F800010E0B7018AE891E00E94BE1C9801281B5E
:102F90003109C90137FD0196959587959701482D0F
:102FA000682F8AE891E00E94071C6091A201062E1A
:102FB000000C770B880B990B0E94542820E030E01E
:102FC00040EC5FE30E94E0282B013C01B401990C26
:102FD000880B990B0E9454289B01AC01C301B201DC
:102FE0000E94B0272B013C01E0906201F090630148
:102FF00080918A01082F10E0B7018AE891E00E94D1
:10300000BE1CB82EC301B2010E941C28462FC80165
:103010008B19910997FD0196959587959701682FD2
:103020008AE891E00E94071C8AE891E00E94E41D72
:103030008111D0CE68EE73E080E090E00E9412270C
:10304000CE0107960E9438232C960FB6F894DEBF67
:103050000FBECDBFDF91CF911F910F91FF90EF90E9
:10306000BF90AF909F908F907F906F905F904F90A8
:103070000895CF93DF93C6E8D1E01B821A8283E3E1
:1030800091E09983888340E066E071E0CE010E9480
:10309000211A8FE391E09983888367E271E080E8E9
:1030A00091E00E94AA2367E271E08AE791E00E9422
:1030B000AA2367E271E084E791E00E94AA2367E215
:1030C00071E08EE691E00E94AA2367E271E088E653
:1030D00091E00E94AA2367E271E082E691E0DF912D
:1030E000CF910C94AA2382E691E00E94382388E6CF
:1030F00091E00E9438238EE691E00E94382384E715
:1031000091E00E9438238AE791E00E94382380E80A
:1031100091E00C943823CF93DF93CDB7DEB762975D
:103120000FB6F894DEBF0FBECDBF87E492E00E94D9
:10313000F720892B09F447C167E472E0CE010D96B0
:103140000E941D236BE3CE010D960E94F4249C0186
:1031500050E040E0BE01635F7F4FCE0101960E94C8
:103160004625BE016F5F7F4F80E891E00E942624D4
:10317000CE0101960E94382367E271E0CE010796E6
:103180000E94AA2360E871E0CE0101960E941D24EE
:103190006BE3CE0101960E94AD24AE01495F5F4F03
:1031A000BC01CE010D960E948C25CE0101960E9495
:1031B0003823CE0107960E9438236BE3CE010D968B
:1031C0000E94F4249C0150E040E0BE01635F7F4F09
:1031D000CE0101960E944625BE016F5F7F4F8AE7B0
:1031E00091E00E942624CE0101960E94382367E2D6
:1031F00071E0CE0107960E94AA236AE771E0CE0132
:1032000001960E941D246BE3CE0101960E94AD241D
:10321000AE01495F5F4FBC01CE010D960E948C2527
:10322000CE0101960E943823CE0107960E943823D2
:103230006BE3CE010D960E94F4249C0150E040E027
:10324000BE01635F7F4FCE0101960E944625BE01FD
:103250006F5F7F4F84E791E00E942624CE010196A4
:103260000E94382367E271E0CE0107960E94AA23EC
:1032700064E771E0CE0101960E941D246BE3CE014C
:1032800001960E94AD24AE01495F5F4FBC01CE01A3
:103290000D960E948C25CE0101960E943823CE0106
:1032A00007960E9438236BE3CE010D960E94F4240A
:1032B0009C0150E040E0BE01635F7F4FCE0101966C
:1032C0000E944625BE016F5F7F4F8EE691E00E940F
:1032D0002624CE0101960E94382367E271E0CE01D8
:1032E00007960E94AA236EE671E0CE0101960E9425
:1032F0001D246BE3CE0101960E94AD24AE01495F0F
:103300005F4FBC01CE010D960E948C25CE01019627
:103310000E943823CE0107960E9438236BE3CE012A
:103320000D960E94F4249C0150E040E0BE01635FD2
:103330007F4FCE0101960E944625BE016F5F7F4FF1
:1033400088E691E00E942624CE0101960E9438234F
:1033500067E271E0CE0107960E94AA2368E671E059
:10336000CE0101960E941D246BE3CE0101960E94BE
:10337000AD24AE01495F5F4FBC01CE010D960E94A6
:103380008C25CE0101960E943823CE0107960E941B
:10339000382320E130E050E040E0BE01635F7F4F22
:1033A000CE0101960E944625BE016F5F7F4F82E6E7
:1033B00091E00E942624CE0101960E943823CE017E
:1033C0000D960E94382362960FB6F894DEBF0FBEAA
:1033D000CDBFDF91CF9108950E948B1867E271E015
:1033E00080E891E00E94BB2481110C94761667E27C
:1033F00071E08AE791E00E94BB248111F6CF67E279
:1034000071E084E791E00E94BB248111EECF67E276
:1034100071E08EE691E00E94BB248111E6CF67E265
:1034200071E088E691E00E94BB248111DECF67E263
:1034300071E082E691E00E94BB248111D6CF0C940A
:10344000CA16FC0113AE14AE15AE04960C94CA1D38
:10345000AF92BF92CF92DF92FF920F931F93CF93C1
:10346000DF938C01EB01F42E690180E1481709F428
:1034700046C0841790F0EAE04E17B1F196014F2D47
:10348000BE01C801DF91CF911F910F91FF90DF9096
:10349000CF90BF90AF900C94B31EF1E14F1709F499
:1034A0003FC085E14813EACFAA80BB804CE750E0DB
:1034B000C8010E94551FF5014481406BBE01C8013F
:1034C0000E94471F41E0BE01C8010E943F1FAE019C
:1034D000B801C5010E944D1E8823C1F040E0BE0125
:1034E000C8010E94251FCACF42E0C8010E941D1FCB
:1034F00044E850E0BE01C8010E94551FBFCF43E71A
:1035000050E0BE01C8010E94551F81E0DF91CF91BC
:103510001F910F91FF90DF90CF90BF90AF900895D3
:1035200048E650E0EECFFC01E60FF11D849190E0FB
:10353000982F88273196E4918E0F911D0895FC01F4
:10354000849108950E949F1A882321F0823011F0FF
:1035500083E0089586E0089580E00895FC0180816D
:10356000089566E00C94931A68E00C94931A0A96F6
:10357000FC01849108950B96FC0184910895BF92FB
:10358000CF92DF92EF92FF920F931F93CF93DF932F
:103590008C01E62EDC011496CD91DC91CE010E94C7
:1035A0009F1AF82EF801848195810E94A21AB82EE4
:1035B000F1E0CC24CA94FF1202C02FE0C22ED80141
:1035C00014968D919C910E94B71AF82EF80184816F
:1035D00095810E94BB1AD82ED80114968D919C918A
:1035E0000E94B41AB0E6BE1520F5009711F1C80F7D
:1035F000D91F91E6F92EDE1468F5D80150961C9279
:10360000509753961C92539754961C9254975196E8
:103610001C92519752961C92D0E0C0E0CE01DF91EF
:10362000CF911F910F91FF90EF90DF90CF90BF90BF
:103630000895F801848195810E94B11AF0E4FE1585
:1036400038F4009729F0C80FD91F81E4F82ED3CFA2
:103650006196D1CFDF1488F28B2D90E0FE0124918A
:103660002F3F29F42196FD1441F2F394F7CFFE1079
:103670004BC0D80114968D919C910E949F1A9E0177
:103680002F5F3F4FFE01882311F08230E1F48491D7
:10369000D80153968C935397F901249154962C9307
:1036A0005497FE013396E4915096EC935097FE01A7
:1036B0003496E4915196EC935197FE013596E4913E
:1036C0005296EC93ABCF8491982F9F709250D80173
:1036D00052969C93529782958F7051968C935197E6
:1036E000F9012491822F8F7054968C9354972295D0
:1036F0002F7053962C935397FE013296E491E295E6
:10370000EF705096EC938ACF3296E491EC21E80F5B
:10371000F92FF11DCE0FDF1FA6CF6F927F928F92F0
:103720009F92AF92BF92CF92DF92EF92FF920F9350
:103730001F93CF93DF93EC01662E142F622F0E940C
:10374000BF1A6C0180E0C114D104B1F08C819D815D
:103750000E94A21AB82EFB88EC888989680E1E196F
:103760008A89181B0E2D2F2D412F662DCE010E9408
:10377000FB1E811110C08889DF91CF911F910F919D
:10378000FF90EF90DF90CF90BF90AF909F908F9081
:103790007F906F900895CB0CD11C87E0F80EF694C3
:1037A000F694F694E10E8F2C912C1E1521F3762CB5
:1037B00056010DC0F501049120E0412F672DCE0187
:1037C0000E94F31DFFEFAF1ABF0A88E0780E8A2D22
:1037D0008C198F1578F3C80CD91C1F5FE6CFFF92A8
:1037E0000F931F93CF93DF93EC01062F142FF22E2C
:1037F000ED89FE890995482F410F2F2D602FCE01AD
:10380000DF91CF911F910F91FF900C948D1BCF9260
:10381000DF92EF92FF920F931F93CF93DF937C0180
:10382000D62E042FC22E132FDC015596ED91FC915C
:103830000995080FCC2DD12F10E0299121110AC034
:10384000812FDF91CF911F910F91FF90EF90DF902B
:10385000CF900895402F6D2DC7010E948D1BD80E6B
:10386000180FEBCFDC0114962D913C911597211583
:10387000310569F157968C915797F901811128C04C
:103880003596E4915896EC935897F9013C96E4915B
:103890005996EC93599758968C915897082E000C8E
:1038A000990B59962C915997821B910927FD939555
:1038B0005A962C915A97203441F0829FC0011124CE
:1038C00026E0969587952A95E1F75B968C93089567
:1038D000813041F43F96E4915896EC935897F90162
:1038E0007096D5CF3D96E4915896EC935897F90190
:1038F0003E96CDCF2CEA3AE1FC01368B258B08951C
:10390000CF92DF92EF92FF920F931F93CF93DF93AB
:103910008C017B016A01CB01FA010995D82F80E067
:10392000DD2309F16D2FC8010E94BF1AF801C1897A
:10393000C195FFEFEF1AFF0AC701F6010995F801DB
:10394000882359F08089C80FC701F6010995D82F3F
:10395000682FC8010E94BF1AECCFD03269F083896A
:103960009189890F8C0FDF91CF911F910F91FF905B
:10397000EF90DF90CF9008958089F4CF4EEA5AE11E
:103980000C94801CCF93DF93FC0124813581261792
:10399000370749F0EC01758364830E94321C8CEA7E
:1039A0009AE19E8B8D8BDF91CF9108951F93CF93DA
:1039B000DF93EC011D821C821F821E82198681E02A
:1039C000888782E28A871F861E86FE01B396CE0113
:1039D000C1962FEF2193E817F907E1F711E018A33B
:1039E000CE010E947A1C1F8B188E198E80E48A8F5C
:1039F0001B8E8AEF9EE19AAB89ABDF91CF911F912D
:103A00000895DB01ED91FC9109940F931F93CF93DF
:103A1000DF93EC018B01E9A9FAA982E0099530E076
:103A200020E04AE0B801CE010E94011D182FE9A94B
:103A3000FAA983E00995E9A9FAA980E00995812FFF
:103A4000DF91CF911F910F9108950F931F93CF9303
:103A5000DF93EC018B01E9A9FAA982E00995E9A9B4
:103A6000FAA981E0099530E020E044E1B801CE01F7
:103A70000E94011D9E012D5C3F4F47E1B801CE0120
:103A80000E94011DE9A9FAA980E0DF91CF911F9161
:103A90000F910994EF92FF921F93CF93DF93EC0164
:103AA0007B01E9A9FAA982E00995E9A9FAA981E0CF
:103AB000099530E020E045E1B701CE010E94011DEB
:103AC000182F882341F09E012D5C3F4F47E1B7013D
:103AD000CE010E94011DE9A9FAA980E00995812F74
:103AE000DF91CF911F91FF90EF900895CF93DF93D7
:103AF0001F92CDB7DEB79E012F5F3F4F46E40E9475
:103B0000011D89810F90DF91CF910895CF93DF93AD
:103B10001F92CDB7DEB79E012F5F3F4F47E40E9453
:103B2000011D89810F90DF91CF91089530E020E051
:103B300048E40C94011DCF93DF93EC016A817B81F3
:103B40000E94761D88836A817B81CE010E94861D3A
:103B500089836A817B81CE010E94961D8B879E019D
:103B60002D5C3F4F6A817B8147E1CE01DF91CF9190
:103B70000C94011DCF93DF93EC016A817B810E943D
:103B8000051D882321F0CE010E949B1D81E0DF915D
:103B9000CF910895EF92FF921F93CF93DF93EC01A3
:103BA0007B01142F0E94D61CFB82EA821EA7CE0145
:103BB000DF91CF911F91FF90EF900C94BA1DFC0103
:103BC000628173810C94251DCF93DF93EC01EE8508
:103BD000FF85309709F009956A817B81CE01DF91DD
:103BE000CF910C944A1D0F93FC0182819381648FC5
:103BF000458F278F068F9F01245E3F4F4BE3BC010B
:103C0000CF010F910C94011DDC011696ED91FC91F2
:103C1000179715968C918E0F9F2F911D1192E81773
:103C2000F907E1F70895FC0191E08381861708F414
:103C300090E031E0461708F030E021E0828148173B
:103C400008F420E0892F832B82239323892B089566
:103C5000DC01FB01108212968C91129781831596DC
:103C60008C9115978150828313968C91838308954C
:103C7000FC01DB0111969C91119713962C9148E061
:103C8000490F213031F0233011F0492F02C0492F64
:103C90009850692FCF010C94131EFC01CB01BA017F
:103CA0002681378145810C944F1FDC011696ED91DA
:103CB000FC91179712968C91481B477081E090E019
:103CC00001C0880F4A95EAF7E60FF11D30812223E3
:103CD00019F0832B8083089580958323FBCFFB010C
:103CE0004181DC0112962C911297421768F01396CD
:103CF0002C911397241740F0608115962C91621730
:103D000018F424810C94551E0895DF92EF92FF92CF
:103D10000F931F93CF93DF937C01EB011A818B816B
:103D200000E0D12C843048F490E0FC01E55BFE4FCC
:103D3000D080895B9E4FFC01008117FF04C0BE014B
:103D4000C7010E946F1E88818D0D88838981800F35
:103D50008983110F91F7DF91CF911F910F91FF9000
:103D6000EF90DF9008950F931F93CF93DF93890116
:103D7000FB01C281D381423321F168F4453131F135
:103D8000473169F14431B9F4CE010E94041ECE01DD
:103D90000E94DA2010C0463439F1473449F14B33E0
:103DA00051F4B901CE010E94381E882321F0B801D8
:103DB000CE010E94851E81E0DF91CF911F910F916E
:103DC0000895B901CE010E946F1EF5CFCE010E9469
:103DD000E120882389F3CE010E94041EECCFB901B3
:103DE000CE010E94281EE7CF8D81F8018083E3CFAA
:103DF0008981FBCF08950F93FC010150040F84A922
:103E000096A9941788F0081710F4041778F4215035
:103E1000260F83A995A9961758F0281760F481E01A
:103E2000261720F40F910895081778F780E0FACF4D
:103E30002817A8F7FBCF81E0F5CFDB011496ED91B1
:103E4000FC9130E020E061E00994DB011496ED91F3
:103E5000FC9130E020E063E00994DB011496ED91E1
:103E6000FC9130E020E040E064E00994DB0114962E
:103E7000ED91FC9130E020E041E064E00994DB0149
:103E80001496ED91FC9130E020E062E00994DB01B2
:103E90001496ED91FC9130E020E065E00994DB019F
:103EA0001496ED91FC9166E00994CF92DF92EF9227
:103EB000FF920F931F93CF93DF938C016B017A01D5
:103EC00080E0F701C49181110FC081E0CF3F41F044
:103ED0004C2FB601C8010E94471F8823C1F180E022
:103EE000FFEFEF1AFF0AEDCF4FEFCF3F91F3CE3F39
:103EF00079F1C03FA0F7C03E38F04C2F4F70B601AB
:103F0000C8010E943F1FEBCFC03D38F04C2F4F70CF
:103F1000B601C8010E94251FE2CFC03C98F0B6014F
:103F2000C8010E942D1FC295C07FCE5FD0E0CE0198
:103F30000E94D020B601C8010E94361FCE010E9407
:103F4000D020CDCF8C2F90E0C7FFF9CFC8CF80E035
:103F5000DF91CF911F910F91FF90EF90DF90CF9065
:103F60000895CF93DF93FC0123A5222391F0EC0168
:103F700088E70E946820811104C080E0DF91CF9122
:103F800008958EA1811107C00E94A6208823A9F35D
:103F90001BA681E0F3CF80E4F7CF0F931F93CF935D
:103FA000DF93C62FD42F8901633001F138F46130DB
:103FB00099F0623009F449C0C1E012C0663029F1BD
:103FC000673091F16530C1F70E94B11F811117C0B0
:103FD0000E94C920C0E004C0FC0186A50E942F20D9
:103FE0008C2FDF91CF911F910F910895FC0116A2A4
:103FF00021E023A74111E0CF0E94C920DDCF8D2F02
:104000000E94A6208111D8CFE3CF0E94B11F882340
:10401000F9F2DD2389F2F80181918F010E94A62037
:104020008823B1F2D150F5CF0E94B11F882381F2CD
:10403000DD2311F2F80184910E94A620C82F882365
:1040400079F20F5F1F4FD150F3CFFC0146A321E05F
:1040500023A7B2CF10924602109244020895809393
:1040600045021092B90084FF05C08CE08093B8002F
:104070000C942A2088E4FACFCF93DF9300D0CDB7F9
:10408000DEB720ED37E03A8329839091BC00982376
:1040900011F081E011C029813A81232B91F48091A4
:1040A000450281FDF6CF8091460281110FC091E05B
:1040B00090934602609344020F900F90DF91CF914E
:1040C000089529813A8121503109DDCF80E0F4CF74
:1040D000CF93C82F84EA8093BC0061E080E80E94FF
:1040E0003C20811103C080E0CF9108958091B900F8
:1040F000887F883069F0803159F0809146028111C3
:10410000F2CF92E09093460291E090934402ECCF7C
:10411000C093BB0084E88093BC0062E080E80E940A
:104120003C20882301F38091450281FD0DC08091E0
:10413000B900887F883141F0809146028111D3CF48
:1041400092E090934602E1CF81E0CECF8093BB0016
:1041500084E88093BC0063E080E80E943C208823D0
:10416000B9F08091450281FD10C08091B900887F2F
:10417000883259F080914602811109C092E09093F3
:10418000460293E090934402089581E0089580E010
:10419000089584E98093BC0064E080E10C943C20A5
:1041A0002EE93FE0009709F40895F9013197F1F7FE
:1041B0000197F8CFFC0112828081815083831482A1
:1041C0000895FC0180819281980F9283218192173A
:1041D00060F494819F5F94839381890F821710F01C
:1041E0008FEF820F838381E0089580E00895FC01C2
:1041F000918D228D892F90E0805C9F4F821B9109C9
:104200008F7399270895FC01918D828D981731F055
:10421000828DE80FF11D858D90E008958FEF9FEF5F
:104220000895FC01918D828D981761F0A28DAE0FDB
:10423000BF2FB11D5D968C91928D9F5F9F73928F62
:1042400090E008958FEF9FEF0895FC01538D448D0A
:10425000252F30E0842F90E0821B930B541710F031
:10426000CF960895019708958BE892E2892B49F043
:1042700080E090E0892B29F00E948B2281110C9420
:1042800000000895FC01A48DA80FB92FB11DA35AF9
:10429000BF4F2C91848D90E001968F739927848F66
:1042A000A689B7892C93A089B1898C918370806489
:1042B0008C93938D848D981306C00288F389E02D2A
:1042C00080818F7D80830895CF93DF93EC01888D6B
:1042D0008823B9F0AA89BB89E889F9898C9185FD81
:1042E00003C0808186FD0DC00FB607FCF7CF8C910F
:1042F00085FFF2CF808185FFEDCFCE010E94422164
:10430000E9CFDF91CF910895EF92FF920F931F9322
:10431000CF93DF93EC0181E0888F9B8D8C8D981378
:104320001AC0E889F989808185FF15C09FB7F89484
:10433000EE89FF896083E889F989808183708064D0
:1043400080839FBF81E090E0DF91CF911F910F911B
:10435000FF90EF900895F62E0B8D10E00F5F1F4F2A
:104360000F731127E02E8C8D8E110CC00FB607FC39
:10437000FACFE889F989808185FFF5CFCE010E94C7
:104380004221F1CFEB8DEC0FFD2FF11DE35AFF4FD2
:10439000F0829FB7F8940B8FEA89FB898081806255
:1043A000CFCFCF92DF92EF92FF921F93CF93DF9305
:1043B000EC016A017B01122FE889F98982E0808390
:1043C000C11481EED806E104F104A1F060E079E0C7
:1043D0008DE390E0A70196010E94872721503109C3
:1043E000410951095695479537952795211580E143
:1043F000380798F0E889F989108260E874E88EE15E
:1044000090E0A70196010E948727215031094109B8
:1044100051095695479537952795EC85FD8530834D
:10442000EE85FF852083188EEC89FD891083EA894B
:10443000FB89808180618083EA89FB898081886033
:104440008083EA89FB89808180688083EA89FB898F
:1044500080818F7D8083DF91CF911F91FF90EF90BE
:10446000DF90CF9008951F920F920FB60F921124F4
:104470002F938F939F93EF93FF93E0915702F091C7
:1044800058028081E0915D02F0915E0282FD1BC0C6
:104490009081809160028F5F8F73209161028217FB
:1044A00041F0E0916002F0E0E95BFD4F958F809371
:1044B0006002FF91EF919F918F912F910F900FBE0E
:1044C0000F901F9018958081F4CF1F920F920FB616
:1044D0000F9211242F933F934F935F936F937F938A
:1044E0008F939F93AF93BF93EF93FF9387E492E0F3
:1044F0000E944221FF91EF91BF91AF919F918F91C7
:104500007F916F915F914F913F912F910F900FBECF
:104510000F901F90189587E492E00E94F72021E009
:10452000892B09F420E0822F0895E7E4F2E013825A
:10453000128288EE93E0A0E0B0E084839583A683A6
:10454000B78383E591E09183808385EC90E0958744
:10455000848784EC90E09787868780EC90E0918B4D
:10456000808B81EC90E0938B828B82EC90E0958B3A
:10457000848B86EC90E0978B868B118E128E138E37
:10458000148E0895AF92BF92CF92DF92EF92FF9276
:104590000F931F93CF93DF936C017B018B01040F6B
:1045A000151FEB015E01AE18BF08C017D10759F007
:1045B0006991D601ED91FC910190F081E02DC60149
:1045C0000995892B79F7C501DF91CF911F910F9143
:1045D000FF90EF90DF90CF90BF90AF9008950F9332
:1045E0001F93CF93DF93EC010E94E12668877987C0
:1045F0008A879B87E881F9810284F385E02DCE01CB
:10460000099597FF15C00E94E126088519852A851E
:104610003B85601B710B820B930B0C811D812E81DE
:104620003F81601771078207930720F38FEF9FEF99
:10463000DF91CF911F910F9108950F931F93CF9307
:10464000DF93EC018B0167E271E00E94AA23C801AD
:104650000E94EF2297FD05C0682FCE010E946D24B5
:10466000F6CFCE01DF91CF911F910F91089508955C
:10467000FC0180819181009711F00C94E929089543
:10468000CF93DF93EC0188819981009711F00E940C
:10469000E929198218821D821C821B821A82DF91ED
:1046A000CF9108950F931F93CF93DF93EC018B016C
:1046B0006F5F7F4F888199810E94722A009751F025
:1046C000998388831B830A8381E0DF91CF911F91B7
:1046D0000F91089580E0F9CFCF93DF93EC018881AB
:1046E0009981892B49F08A819B818617970720F051
:1046F00081E0DF91CF910895CE010E94522388235B
:10470000C1F38C819D81892B99F7E881F981108211
:10471000EFCFEF92FF920F931F93CF93DF93EC01B4
:104720007B018A01BA010E946C2381110BC0CE016A
:104730000E944023CE01DF91CF911F910F91FF90F6
:10474000EF9008951D830C83B701888199810E94A1
:104750005E2BF0CFFC01118210821382128215822F
:1047600014826115710551F0FB0101900020E9F7F9
:104770003197AF01461B570B0C9489230895FB0119
:1047800001900020E9F73197AF01461B570B0C94BD
:1047900089230F931F93CF93DF938C01EB01FC01CF
:1047A00080819181009701F168817981611571059E
:1047B000C9F027E333E2232BA9F0428153812C81F6
:1047C0003D814217530770F00E945E2B8C819D81C2
:1047D000F801958384831D821C82DF91CF911F9104
:1047E0000F9108950E94E92988819981F8019183A8
:1047F00080838A819B81938382838C819D81958331
:104800008483198218821B821A82E5CFCF93DF93AB
:10481000EC01FB018617970749F0608171816115F2
:10482000710541F0448155810E948923CE01DF91B9
:10483000CF9108950E944023F9CFFC01118210828C
:1048400013821282158214820C940624CF93DF9374
:10485000EC018617970711F00E94C923CE01DF9162
:10486000CF910895CF93DF93EC016115710531F07D
:104870000E94BF23CE01DF91CF9108950E94402373
:10488000F9CFEF92FF920F931F93CF93DF936115B0
:10489000710541F480E0DF91CF911F910F91FF905E
:1048A000EF90089541155105B1F07B01EC010C81A9
:1048B0001D81040F151FB8010E946C23882351F33A
:1048C000288139818C819D81B701820F931F0E94BD
:1048D0005E2B1D830C8381E0DECFCF93DF9300D06E
:1048E000CDB7DEB769831A8241E050E0BE016F5F49
:1048F0007F4F0E9441240F900F90DF91CF91089538
:10490000CF93DF93EC01FB0144815581608171817C
:104910000E944124811103C0CE010E944023CE0198
:10492000DF91CF910895CF93DF93EC01611571056D
:1049300039F4CE010E944023CE01DF91CF9108953A
:10494000FB0101900020E9F73197AF01461B570B9F
:104950000E944124882369F3EFCFCF93DF93EC01CA
:104960000E946D24811103C0CE010E944023CE011C
:10497000DF91CF910895FC0124813581232B31F4FF
:1049800021E0FB01672B49F4822F089580819181FA
:104990006115710539F421E0FC0180818823A1F3C0
:1049A00020E0F2CF0E94552B21E0892B69F3F8CF4C
:1049B000CF93DF93FC01248135814217530788F49C
:1049C000C081D181062E000C770BCE01840F951F7C
:1049D0000E944A2B009729F08C1B9D0BDF91CF91F1
:1049E00008958FEF9FEFFACF50E040E00C94D82469
:1049F000AF92BF92CF92DF92EF92FF920F931F93ED
:104A0000CF93DF936B01EA01FB014481558141158E
:104A1000510561F1FC01248135812115310531F108
:104A20002417350718F1C217D30710F0E9012197B1
:104A3000FC0100811181C801AA24AA94BB24BA9464
:104A40007801EC0EFD1EE816F906A0F0F601608173
:104A500071810E94652B009769F09C01201B310B2E
:104A6000C217D30708F059010196EDCFAA24AA94E2
:104A7000BB24BA94C501DF91CF911F910F91FF9094
:104A8000EF90DF90CF90BF90AF900895AF92BF921C
:104A9000CF92DF92EF92FF920F931F93CF93DF930A
:104AA0005C016B017A0189012417350720F48F2DF1
:104AB0007901042F182F67E271E0C5010E94AA2333
:104AC000D6011496CD91DC91EC16FD06C8F40C17B6
:104AD0001D0708F4E801D601ED91FC911197EC0F48
:104AE000FD1F108110826D917C916E0D7F1DC5019F
:104AF0000E943224F60180819181C80FD91F18834A
:104B0000C501DF91CF911F910F91FF90EF90DF9042
:104B1000CF90BF90AF9008952F923F924F925F92A7
:104B20006F927F928F929F92AF92BF92CF92DF92BD
:104B3000EF92FF920F931F93CF93DF93FC0144807A
:104B400055804114510409F4CFC0FB016480758085
:104B50006114710409F4C8C07A016B018C01FA0177
:104B6000A480B580A618B708FC01C081D181A1142A
:104B7000B104B9F4F60160817181CE010E94652B08
:104B8000EC01009709F4B0C0F701608171814481A4
:104B900055810E942F2BF70184819581C80FD91F61
:104BA000E9CFB7FC11C0FB01208031804201B10187
:104BB000CE010E94652B009709F44AC0EC01C60D96
:104BC000D71D8A0C9B1CF3CF3E01F60160817181D9
:104BD000CE010E94652B2C01009721F14C018C1A0B
:104BE0009D0AA401BE01C3010E942F2B680C791CF1
:104BF000F7016081718144815581C3010E942F2B8F
:104C0000F70184809580680C791CF601C481D581F8
:104C1000C40DD51DF801848195818A0D9B1D958356
:104C20008483D3CFBE01C301DF91CF911F910F9138
:104C3000FF90EF90DF90CF90BF90AF909F908F90BC
:104C40007F906F905F904F903F902F900C945E2BD1
:104C50004814590409F448C0F801828193818815E9
:104C60009905E0F1F801448155814150510957FD02
:104C70003BC0B601C8010E94F824EC0197FD34C086
:104C8000F60124813581280F391FF8018081918137
:104C9000820F931F44815581421B530BBC018A0D27
:104CA0009B1D0E94382BF801848195818A0D9B1DE4
:104CB0009583848320813181820F931FFC011082B0
:104CC000F80180819181F701608171814481558172
:104CD0008C0F9D1F0E942F2BAE01C7CFB401C801BE
:104CE0000E9452238111BECFDF91CF911F910F916E
:104CF000FF90EF90DF90CF90BF90AF909F908F90FC
:104D00007F906F905F904F903F902F9008950895FF
:104D10000E944B270E9487260E94BF16C4E3D1E25F
:104D20000E94EC192097E1F30E943421F9CF1F92E1
:104D30000F920FB60F9211242F933F938F939F934F
:104D4000AF93BF938091E5029091E602A091E702B4
:104D5000B091E8023091E40223E0230F2D3758F59B
:104D60000196A11DB11D2093E4028093E50290936A
:104D7000E602A093E702B093E8028091E9029091E5
:104D8000EA02A091EB02B091EC020196A11DB11DC7
:104D90008093E9029093EA02A093EB02B093EC02B5
:104DA000BF91AF919F918F913F912F910F900FBE27
:104DB0000F901F90189526E8230F0296A11DB11D94
:104DC000D2CF2FB7F8946091E5027091E6028091FE
:104DD000E7029091E8022FBF08953FB7F8948091C1
:104DE000E9029091EA02A091EB02B091EC0226B5A3
:104DF000A89B05C02F3F19F00196A11DB11D3FBF13
:104E0000BA2FA92F982F8827BC01CD01620F711DE1
:104E1000811D911D42E0660F771F881F991F4A95DB
:104E2000D1F708958F929F92AF92BF92CF92DF9267
:104E3000EF92FF926B017C010E94ED264B015C0119
:104E4000C114D104E104F104E9F00E9486270E9414
:104E5000ED26681979098A099B09683E7340810526
:104E6000910570F321E0C21AD108E108F10888EE3B
:104E7000880E83E0981EA11CB11CC114D104E1046A
:104E8000F10429F7FF90EF90DF90CF90BF90AF90A3
:104E90009F908F900895789484B5826084BD84B586
:104EA000816084BD85B5826085BD85B5816085BD25
:104EB000EEE6F0E0808181608083E1E8F0E010823E
:104EC000808182608083808181608083E0E8F0E07F
:104ED000808181608083E1EBF0E080818460808369
:104EE000E0EBF0E0808181608083EAE7F0E08081A0
:104EF0008460808380818260808380818160808300
:104F00008081806880831092C10008950895A1E295
:104F10001A2EAA1BBB1BFD010DC0AA1FBB1FEE1F33
:104F2000FF1FA217B307E407F50720F0A21BB30B7E
:104F3000E40BF50B661F771F881F991F1A9469F7FA
:104F400060957095809590959B01AC01BD01CF0156
:104F50000895EE0FFF1F0590F491E02D099450582D
:104F6000BB27AA270E94C7270C94A6280E9498282E
:104F700038F00E949F2820F039F49F3F19F426F45E
:104F80000C9495280EF4E095E7FB0C948F28E92FFC
:104F90000E94B72858F3BA1762077307840795076A
:104FA00020F079F4A6F50C94D9280EF4E0950B2E98
:104FB000BA2FA02D0B01B90190010C01CA01A0016B
:104FC0001124FF27591B99F0593F50F4503E68F1C6
:104FD0001A16F040A22F232F342F4427585FF3CF07
:104FE000469537952795A795F0405395C9F77EF4D8
:104FF0001F16BA0B620B730B840BBAF09150A1F021
:10500000FF0FBB1F661F771F881FC2F70EC0BA0FA6
:10501000621F731F841F48F4879577956795B7952E
:10502000F7959E3F08F0B0CF9395880F08F0992729
:10503000EE0F9795879508950E9423286894B111E3
:105040000C94DA2808950E94BF2888F09F5798F0A2
:10505000B92F9927B751B0F0E1F0660F771F881F7D
:10506000991F1AF0BA95C9F714C0B13091F00E9497
:10507000D928B1E008950C94D928672F782F882774
:10508000B85F39F0B93FCCF3869577956795B395BE
:10509000D9F73EF490958095709561957F4F8F4F2D
:1050A0009F4F0895E89409C097FB3EF49095809532
:1050B000709561957F4F8F4F9F4F9923A9F0F92FDE
:1050C00096E9BB279395F695879577956795B7955C
:1050D000F111F8CFFAF4BB0F11F460FF1BC06F5F42
:1050E0007F4F8F4F9F4F16C0882311F096E911C054
:1050F000772321F09EE8872F762F05C0662371F075
:1051000096E8862F70E060E02AF09A95660F771F88
:10511000881FDAF7880F9695879597F9089597F97C
:105120009F6780E870E060E008959FEF80EC08954D
:1051300000240A9416161706180609060895002476
:105140000A9412161306140605060895092E0394F0
:10515000000C11F4882352F0BB0F40F4BF2B11F464
:1051600060FF04C06F5F7F4F8F4F9F4F089557FDC3
:105170009058440F551F59F05F3F71F04795880FC5
:1051800097FB991F61F09F3F79F08795089512165C
:1051900013061406551FF2CF4695F1DF08C0161608
:1051A00017061806991FF1CF8695710561050894B9
:1051B0000895E894BB2766277727CB0197F90895D0
:1051C0000E94F3280C94A6280E94982838F00E9488
:1051D0009F2820F0952311F00C948F280C9495288B
:1051E00011240C94DA280E94B72870F3959FC1F31C
:1051F000950F50E0551F629FF001729FBB27F00D85
:10520000B11D639FAA27F00DB11DAA1F649F6627D9
:10521000B00DA11D661F829F2227B00DA11D621F28
:10522000739FB00DA11D621F839FA00D611D221FE2
:10523000749F3327A00D611D231F849F600D211DC6
:10524000822F762F6A2F11249F5750409AF0F1F049
:1052500088234AF0EE0FFF1FBB1F661F771F881FB2
:1052600091505040A9F79E3F510580F00C948F2833
:105270000C94DA285F3FE4F3983ED4F38695779553
:105280006795B795F795E7959F5FC1F7FE2B880F58
:10529000911D9695879597F908950F931F93CF9336
:1052A000DF938230910510F482E090E0E091EF020C
:1052B000F091F00230E020E0B0E0A0E0309799F407
:1052C0002115310509F44AC0281B390B243031055A
:1052D000D8F58A819B816115710589F1FB01938362
:1052E0008283FE0111C040815181028113814817E0
:1052F0005907E0F04817590799F4109761F0129692
:105300000C93129713961C933296CF01DF91CF9195
:105310001F910F9108950093EF021093F002F4CFC4
:105320002115310551F04217530738F0A901DB016F
:105330009A01BD01DF01F801C1CFEF01F9CF9093D0
:10534000F0028093EF02CDCFFE01E20FF31F8193B5
:1053500091932250310939832883D7CF2091ED02D0
:105360003091EE02232B41F4209102013091030190
:105370003093EE022093ED02209100013091010163
:105380002115310541F42DB73EB7409104015091EC
:105390000501241B350BE091ED02F091EE02E217BE
:1053A000F307A0F42E1B3F0B2817390778F0AC0148
:1053B0004E5F5F4F2417350748F04E0F5F1F509325
:1053C000EE024093ED02819391939FCFF0E0E0E0F5
:1053D0009CCFCF93DF930097E9F0FC0132971382C3
:1053E0001282A091EF02B091F002ED0130E020E0D6
:1053F0001097A1F420813181820F931F2091ED023B
:105400003091EE022817390709F061C0F093EE02DF
:10541000E093ED02DF91CF910895EA01CE17DF0707
:10542000E8F54A815B819E0141155105B1F7E9011B
:10543000FB83EA8349915991C40FD51FEC17FD07EF
:1054400061F4808191810296840F951FE90199830F
:105450008883828193819B838A83F0E0E0E01296C7
:105460008D919C9113970097B9F52D913C911197CF
:10547000CD010296820F931F2091ED023091EE0232
:105480002817390739F6309751F51092F00210922B
:10549000EF02B093EE02A093ED02BCCFD383C283A0
:1054A00040815181840F951FC817D90761F44E5F61
:1054B0005F4F88819981480F591F518340838A81AA
:1054C0009B81938382832115310509F0B0CFF0933E
:1054D000F002E093EF029ECFFD01DC01C0CF13820A
:1054E0001282D7CFB0E0A0E0E8E7FAE20C94812B7B
:1054F0008C01009751F4CB010E944D298C01C80109
:10550000CDB7DEB7E0E10C949D2BFC01E60FF71F51
:105510009C0122503109E217F30708F49DC0D9011C
:10552000CD91DC911197C617D70798F0C530D105FA
:1055300030F3CE0104978617970708F3C61BD70BE5
:105540002297C193D1936D937C93CF010E94E92957
:10555000D6CF5B01AC1ABD0A4C018C0E9D1EA091EA
:10556000EF02B091F002512C412CF12CE12C10975C
:1055700031F58091ED029091EE028815990509F0C0
:105580005CC04616570608F058C080910001909103
:105590000101009741F48DB79EB7409104015091ED
:1055A0000501841B950BE817F90708F055C0F09327
:1055B000EE02E093ED02F90171836083A0CF8D913B
:1055C0009C91119712966C90129713967C9013975A
:1055D000A815B90559F56C0142E0C40ED11CCA14D6
:1055E000DB0420F1AC014A195B09DA011296159728
:1055F00080F06282738251834083D9016D937C93E2
:10560000E114F10471F0D7011396FC93EE93129715
:1056100076CF22968C0F9D1FF90191838083F30131
:10562000EFCFF093F002E093EF0269CF48165906EE
:1056300008F42C017D01D3019ACFCB010E944D29A2
:105640007C01009749F0AE01B8010E942F2BC801E0
:105650000E94E929870153CF10E000E050CFFB0101
:10566000DC0102C001900D9241505040D8F70895DE
:105670006817790768F4FB01DC01E40FF51FA40F3C
:10568000B51F02C002900E9241505040D8F70895C5
:105690000C942F2BFC018191861721F08823D9F7D8
:1056A000992708953197CF010895FB01DC018D9171
:1056B000019080190110D9F3990B0895FB01DC01C9
:1056C00001900D920020E1F70895FB0151915523BF
:1056D000A9F0BF01DC014D9145174111E1F759F4E3
:1056E000CD010190002049F04D9140154111C9F3C1
:1056F000FB014111EFCF81E090E0019708952F92D7
:105700003F924F925F926F927F928F929F92AF9251
:10571000BF92CF92DF92EF92FF920F931F93CF939E
:10572000DF93CDB7DEB7CA1BDB0B0FB6F894DEBF35
:105730000FBECDBF09942A88398848885F846E845B
:105740007D848C849B84AA84B984C884DF80EE80A5
:10575000FD800C811B81AA81B981CE0FD11D0FB6AE
:10576000F894DEBF0FBECDBFED01089516E1C4E28F
:10577000D6E104C0FE010E94A9272196C532D107B7
:06578000C9F7F894FFCF09
:105786000000F1028000281A0C01CD1F084000001D
:105796000080C40131353532393830333538002789
:1057A60043002743202F2000685061207C20000002
:1057B6000000005316C2224F165216000000005376
:1057C60016C2224F165216000100FF0100FF00000C
:1057D6000000008421C22225216421F72011210323
:0257E6002100A0
:00000001FF
